{
  "_format": "hh-sol-artifact-1",
  "contractName": "N",
  "sourceName": "contracts/Nft721.sol",
  "abi": [
    {
      "inputs": [],
      "stateMutability": "nonpayable",
      "type": "constructor"
    },
    {
      "anonymous": false,
      "inputs": [
        {
          "indexed": true,
          "internalType": "address",
          "name": "owner",
          "type": "address"
        },
        {
          "indexed": true,
          "internalType": "address",
          "name": "approved",
          "type": "address"
        },
        {
          "indexed": true,
          "internalType": "uint256",
          "name": "tokenId",
          "type": "uint256"
        }
      ],
      "name": "Approval",
      "type": "event"
    },
    {
      "anonymous": false,
      "inputs": [
        {
          "indexed": true,
          "internalType": "address",
          "name": "owner",
          "type": "address"
        },
        {
          "indexed": true,
          "internalType": "address",
          "name": "operator",
          "type": "address"
        },
        {
          "indexed": false,
          "internalType": "bool",
          "name": "approved",
          "type": "bool"
        }
      ],
      "name": "ApprovalForAll",
      "type": "event"
    },
    {
      "anonymous": false,
      "inputs": [
        {
          "indexed": true,
          "internalType": "address",
          "name": "previousOwner",
          "type": "address"
        },
        {
          "indexed": true,
          "internalType": "address",
          "name": "newOwner",
          "type": "address"
        }
      ],
      "name": "OwnershipTransferred",
      "type": "event"
    },
    {
      "anonymous": false,
      "inputs": [
        {
          "indexed": true,
          "internalType": "address",
          "name": "from",
          "type": "address"
        },
        {
          "indexed": true,
          "internalType": "address",
          "name": "to",
          "type": "address"
        },
        {
          "indexed": true,
          "internalType": "uint256",
          "name": "tokenId",
          "type": "uint256"
        }
      ],
      "name": "Transfer",
      "type": "event"
    },
    {
      "inputs": [
        {
          "internalType": "address",
          "name": "to",
          "type": "address"
        },
        {
          "internalType": "uint256",
          "name": "tokenId",
          "type": "uint256"
        }
      ],
      "name": "approve",
      "outputs": [],
      "stateMutability": "nonpayable",
      "type": "function"
    },
    {
      "inputs": [
        {
          "internalType": "address",
          "name": "owner",
          "type": "address"
        }
      ],
      "name": "balanceOf",
      "outputs": [
        {
          "internalType": "uint256",
          "name": "",
          "type": "uint256"
        }
      ],
      "stateMutability": "view",
      "type": "function"
    },
    {
      "inputs": [],
      "name": "baseUri",
      "outputs": [
        {
          "internalType": "string",
          "name": "",
          "type": "string"
        }
      ],
      "stateMutability": "view",
      "type": "function"
    },
    {
      "inputs": [
        {
          "internalType": "uint256",
          "name": "tokenId",
          "type": "uint256"
        }
      ],
      "name": "getApproved",
      "outputs": [
        {
          "internalType": "address",
          "name": "",
          "type": "address"
        }
      ],
      "stateMutability": "view",
      "type": "function"
    },
    {
      "inputs": [
        {
          "internalType": "address",
          "name": "owner",
          "type": "address"
        },
        {
          "internalType": "address",
          "name": "operator",
          "type": "address"
        }
      ],
      "name": "isApprovedForAll",
      "outputs": [
        {
          "internalType": "bool",
          "name": "",
          "type": "bool"
        }
      ],
      "stateMutability": "view",
      "type": "function"
    },
    {
      "inputs": [
        {
          "internalType": "address",
          "name": "_to",
          "type": "address"
        },
        {
          "internalType": "uint256",
          "name": "_tokenId",
          "type": "uint256"
        }
      ],
      "name": "mint",
      "outputs": [],
      "stateMutability": "nonpayable",
      "type": "function"
    },
    {
      "inputs": [],
      "name": "name",
      "outputs": [
        {
          "internalType": "string",
          "name": "",
          "type": "string"
        }
      ],
      "stateMutability": "view",
      "type": "function"
    },
    {
      "inputs": [],
      "name": "owner",
      "outputs": [
        {
          "internalType": "address",
          "name": "",
          "type": "address"
        }
      ],
      "stateMutability": "view",
      "type": "function"
    },
    {
      "inputs": [
        {
          "internalType": "uint256",
          "name": "tokenId",
          "type": "uint256"
        }
      ],
      "name": "ownerOf",
      "outputs": [
        {
          "internalType": "address",
          "name": "",
          "type": "address"
        }
      ],
      "stateMutability": "view",
      "type": "function"
    },
    {
      "inputs": [],
      "name": "renounceOwnership",
      "outputs": [],
      "stateMutability": "nonpayable",
      "type": "function"
    },
    {
      "inputs": [
        {
          "internalType": "address",
          "name": "from",
          "type": "address"
        },
        {
          "internalType": "address",
          "name": "to",
          "type": "address"
        },
        {
          "internalType": "uint256",
          "name": "tokenId",
          "type": "uint256"
        }
      ],
      "name": "safeTransferFrom",
      "outputs": [],
      "stateMutability": "nonpayable",
      "type": "function"
    },
    {
      "inputs": [
        {
          "internalType": "address",
          "name": "from",
          "type": "address"
        },
        {
          "internalType": "address",
          "name": "to",
          "type": "address"
        },
        {
          "internalType": "uint256",
          "name": "tokenId",
          "type": "uint256"
        },
        {
          "internalType": "bytes",
          "name": "_data",
          "type": "bytes"
        }
      ],
      "name": "safeTransferFrom",
      "outputs": [],
      "stateMutability": "nonpayable",
      "type": "function"
    },
    {
      "inputs": [
        {
          "internalType": "address",
          "name": "operator",
          "type": "address"
        },
        {
          "internalType": "bool",
          "name": "approved",
          "type": "bool"
        }
      ],
      "name": "setApprovalForAll",
      "outputs": [],
      "stateMutability": "nonpayable",
      "type": "function"
    },
    {
      "inputs": [
        {
          "internalType": "string",
          "name": "newURI",
          "type": "string"
        }
      ],
      "name": "setURI",
      "outputs": [],
      "stateMutability": "nonpayable",
      "type": "function"
    },
    {
      "inputs": [
        {
          "internalType": "bytes4",
          "name": "interfaceId",
          "type": "bytes4"
        }
      ],
      "name": "supportsInterface",
      "outputs": [
        {
          "internalType": "bool",
          "name": "",
          "type": "bool"
        }
      ],
      "stateMutability": "view",
      "type": "function"
    },
    {
      "inputs": [],
      "name": "symbol",
      "outputs": [
        {
          "internalType": "string",
          "name": "",
          "type": "string"
        }
      ],
      "stateMutability": "view",
      "type": "function"
    },
    {
      "inputs": [
        {
          "internalType": "uint256",
          "name": "index",
          "type": "uint256"
        }
      ],
      "name": "tokenByIndex",
      "outputs": [
        {
          "internalType": "uint256",
          "name": "",
          "type": "uint256"
        }
      ],
      "stateMutability": "view",
      "type": "function"
    },
    {
      "inputs": [
        {
          "internalType": "address",
          "name": "owner",
          "type": "address"
        },
        {
          "internalType": "uint256",
          "name": "index",
          "type": "uint256"
        }
      ],
      "name": "tokenOfOwnerByIndex",
      "outputs": [
        {
          "internalType": "uint256",
          "name": "",
          "type": "uint256"
        }
      ],
      "stateMutability": "view",
      "type": "function"
    },
    {
      "inputs": [
        {
          "internalType": "uint256",
          "name": "tokenId",
          "type": "uint256"
        }
      ],
      "name": "tokenURI",
      "outputs": [
        {
          "internalType": "string",
          "name": "",
          "type": "string"
        }
      ],
      "stateMutability": "view",
      "type": "function"
    },
    {
      "inputs": [],
      "name": "totalSupply",
      "outputs": [
        {
          "internalType": "uint256",
          "name": "",
          "type": "uint256"
        }
      ],
      "stateMutability": "view",
      "type": "function"
    },
    {
      "inputs": [
        {
          "internalType": "address",
          "name": "from",
          "type": "address"
        },
        {
          "internalType": "address",
          "name": "to",
          "type": "address"
        },
        {
          "internalType": "uint256",
          "name": "tokenId",
          "type": "uint256"
        }
      ],
      "name": "transferFrom",
      "outputs": [],
      "stateMutability": "nonpayable",
      "type": "function"
    },
    {
      "inputs": [
        {
          "internalType": "address",
          "name": "newOwner",
          "type": "address"
        }
      ],
      "name": "transferOwnership",
      "outputs": [],
      "stateMutability": "nonpayable",
      "type": "function"
    }
  ],
  "bytecode": "0x60806040523480156200001157600080fd5b506040518060400160405280600281526020017f41330000000000000000000000000000000000000000000000000000000000008152506040518060400160405280600281526020017f41330000000000000000000000000000000000000000000000000000000000008152506200009e62000092620000d860201b60201c565b620000e060201b60201c565b8160019080519060200190620000b6929190620001a4565b508060029080519060200190620000cf929190620001a4565b505050620002b9565b600033905090565b60008060009054906101000a900473ffffffffffffffffffffffffffffffffffffffff169050816000806101000a81548173ffffffffffffffffffffffffffffffffffffffff021916908373ffffffffffffffffffffffffffffffffffffffff1602179055508173ffffffffffffffffffffffffffffffffffffffff168173ffffffffffffffffffffffffffffffffffffffff167f8be0079c531659141344cd1fd0a4f28419497f9722a3daafe3b4186f6b6457e060405160405180910390a35050565b828054620001b29062000283565b90600052602060002090601f016020900481019282620001d6576000855562000222565b82601f10620001f157805160ff191683800117855562000222565b8280016001018555821562000222579182015b828111156200022157825182559160200191906001019062000204565b5b50905062000231919062000235565b5090565b5b808211156200025057600081600090555060010162000236565b5090565b7f4e487b7100000000000000000000000000000000000000000000000000000000600052602260045260246000fd5b600060028204905060018216806200029c57607f821691505b60208210811415620002b357620002b262000254565b5b50919050565b61359f80620002c96000396000f3fe608060405234801561001057600080fd5b50600436106101425760003560e01c80636352211e116100b85780639abc83201161007c5780639abc832014610375578063a22cb46514610393578063b88d4fde146103af578063c87b56dd146103cb578063e985e9c5146103fb578063f2fde38b1461042b57610142565b80636352211e146102cf57806370a08231146102ff578063715018a61461032f5780638da5cb5b1461033957806395d89b411461035757610142565b806318160ddd1161010a57806318160ddd146101fd57806323b872dd1461021b5780632f745c591461023757806340c10f191461026757806342842e0e146102835780634f6ccce71461029f57610142565b806301ffc9a71461014757806302fe53051461017757806306fdde0314610193578063081812fc146101b1578063095ea7b3146101e1575b600080fd5b610161600480360381019061015c91906121e7565b610447565b60405161016e919061222f565b60405180910390f35b610191600480360381019061018c9190612390565b6104c1565b005b61019b610557565b6040516101a89190612461565b60405180910390f35b6101cb60048036038101906101c691906124b9565b6105e9565b6040516101d89190612527565b60405180910390f35b6101fb60048036038101906101f6919061256e565b61066e565b005b610205610786565b60405161021291906125bd565b60405180910390f35b610235600480360381019061023091906125d8565b610793565b005b610251600480360381019061024c919061256e565b6107f3565b60405161025e91906125bd565b60405180910390f35b610281600480360381019061027c919061256e565b610898565b005b61029d600480360381019061029891906125d8565b6108a6565b005b6102b960048036038101906102b491906124b9565b6108c6565b6040516102c691906125bd565b60405180910390f35b6102e960048036038101906102e491906124b9565b610937565b6040516102f69190612527565b60405180910390f35b6103196004803603810190610314919061262b565b6109e9565b60405161032691906125bd565b60405180910390f35b610337610aa1565b005b610341610b29565b60405161034e9190612527565b60405180910390f35b61035f610b52565b60405161036c9190612461565b60405180910390f35b61037d610be4565b60405161038a9190612461565b60405180910390f35b6103ad60048036038101906103a89190612684565b610c72565b005b6103c960048036038101906103c49190612765565b610c88565b005b6103e560048036038101906103e091906124b9565b610cea565b6040516103f29190612461565b60405180910390f35b610415600480360381019061041091906127e8565b610e14565b604051610422919061222f565b60405180910390f35b6104456004803603810190610440919061262b565b610ea8565b005b60007f780e9d63000000000000000000000000000000000000000000000000000000007bffffffffffffffffffffffffffffffffffffffffffffffffffffffff1916827bffffffffffffffffffffffffffffffffffffffffffffffffffffffff191614806104ba57506104b982610fa0565b5b9050919050565b6104c9611082565b73ffffffffffffffffffffffffffffffffffffffff166104e7610b29565b73ffffffffffffffffffffffffffffffffffffffff161461053d576040517f08c379a000000000000000000000000000000000000000000000000000000000815260040161053490612874565b60405180910390fd5b80600b90805190602001906105539291906120d8565b5050565b606060018054610566906128c3565b80601f0160208091040260200160405190810160405280929190818152602001828054610592906128c3565b80156105df5780601f106105b4576101008083540402835291602001916105df565b820191906000526020600020905b8154815290600101906020018083116105c257829003601f168201915b5050505050905090565b60006105f48261108a565b610633576040517f08c379a000000000000000000000000000000000000000000000000000000000815260040161062a90612967565b60405180910390fd5b6005600083815260200190815260200160002060009054906101000a900473ffffffffffffffffffffffffffffffffffffffff169050919050565b600061067982610937565b90508073ffffffffffffffffffffffffffffffffffffffff168373ffffffffffffffffffffffffffffffffffffffff1614156106ea576040517f08c379a00000000000000000000000000000000000000000000000000000000081526004016106e1906129f9565b60405180910390fd5b8073ffffffffffffffffffffffffffffffffffffffff16610709611082565b73ffffffffffffffffffffffffffffffffffffffff161480610738575061073781610732611082565b610e14565b5b610777576040517f08c379a000000000000000000000000000000000000000000000000000000000815260040161076e90612a8b565b60405180910390fd5b61078183836110f6565b505050565b6000600980549050905090565b6107a461079e611082565b826111af565b6107e3576040517f08c379a00000000000000000000000000000000000000000000000000000000081526004016107da90612b1d565b60405180910390fd5b6107ee83838361128d565b505050565b60006107fe836109e9565b821061083f576040517f08c379a000000000000000000000000000000000000000000000000000000000815260040161083690612baf565b60405180910390fd5b600760008473ffffffffffffffffffffffffffffffffffffffff1673ffffffffffffffffffffffffffffffffffffffff168152602001908152602001600020600083815260200190815260200160002054905092915050565b6108a282826114e9565b5050565b6108c183838360405180602001604052806000815250610c88565b505050565b60006108d0610786565b8210610911576040517f08c379a000000000000000000000000000000000000000000000000000000000815260040161090890612c41565b60405180910390fd5b6009828154811061092557610924612c61565b5b90600052602060002001549050919050565b6000806003600084815260200190815260200160002060009054906101000a900473ffffffffffffffffffffffffffffffffffffffff169050600073ffffffffffffffffffffffffffffffffffffffff168173ffffffffffffffffffffffffffffffffffffffff1614156109e0576040517f08c379a00000000000000000000000000000000000000000000000000000000081526004016109d790612d02565b60405180910390fd5b80915050919050565b60008073ffffffffffffffffffffffffffffffffffffffff168273ffffffffffffffffffffffffffffffffffffffff161415610a5a576040517f08c379a0000000000000000000000000000000000000000000000000000000008152600401610a5190612d94565b60405180910390fd5b600460008373ffffffffffffffffffffffffffffffffffffffff1673ffffffffffffffffffffffffffffffffffffffff168152602001908152602001600020549050919050565b610aa9611082565b73ffffffffffffffffffffffffffffffffffffffff16610ac7610b29565b73ffffffffffffffffffffffffffffffffffffffff1614610b1d576040517f08c379a0000000000000000000000000000000000000000000000000000000008152600401610b1490612874565b60405180910390fd5b610b2760006116b7565b565b60008060009054906101000a900473ffffffffffffffffffffffffffffffffffffffff16905090565b606060028054610b61906128c3565b80601f0160208091040260200160405190810160405280929190818152602001828054610b8d906128c3565b8015610bda5780601f10610baf57610100808354040283529160200191610bda565b820191906000526020600020905b815481529060010190602001808311610bbd57829003601f168201915b5050505050905090565b600b8054610bf1906128c3565b80601f0160208091040260200160405190810160405280929190818152602001828054610c1d906128c3565b8015610c6a5780601f10610c3f57610100808354040283529160200191610c6a565b820191906000526020600020905b815481529060010190602001808311610c4d57829003601f168201915b505050505081565b610c84610c7d611082565b838361177b565b5050565b610c99610c93611082565b836111af565b610cd8576040517f08c379a0000000000000000000000000000000000000000000000000000000008152600401610ccf90612b1d565b60405180910390fd5b610ce4848484846118e8565b50505050565b6060610cf58261108a565b610d34576040517f08c379a0000000000000000000000000000000000000000000000000000000008152600401610d2b90612e26565b60405180910390fd5b6000600b8054610d43906128c3565b80601f0160208091040260200160405190810160405280929190818152602001828054610d6f906128c3565b8015610dbc5780601f10610d9157610100808354040283529160200191610dbc565b820191906000526020600020905b815481529060010190602001808311610d9f57829003601f168201915b505050505090506000815111610de15760405180602001604052806000815250610e0c565b80610deb84611944565b604051602001610dfc929190612e82565b6040516020818303038152906040525b915050919050565b6000600660008473ffffffffffffffffffffffffffffffffffffffff1673ffffffffffffffffffffffffffffffffffffffff16815260200190815260200160002060008373ffffffffffffffffffffffffffffffffffffffff1673ffffffffffffffffffffffffffffffffffffffff16815260200190815260200160002060009054906101000a900460ff16905092915050565b610eb0611082565b73ffffffffffffffffffffffffffffffffffffffff16610ece610b29565b73ffffffffffffffffffffffffffffffffffffffff1614610f24576040517f08c379a0000000000000000000000000000000000000000000000000000000008152600401610f1b90612874565b60405180910390fd5b600073ffffffffffffffffffffffffffffffffffffffff168173ffffffffffffffffffffffffffffffffffffffff161415610f94576040517f08c379a0000000000000000000000000000000000000000000000000000000008152600401610f8b90612f18565b60405180910390fd5b610f9d816116b7565b50565b60007f80ac58cd000000000000000000000000000000000000000000000000000000007bffffffffffffffffffffffffffffffffffffffffffffffffffffffff1916827bffffffffffffffffffffffffffffffffffffffffffffffffffffffff1916148061106b57507f5b5e139f000000000000000000000000000000000000000000000000000000007bffffffffffffffffffffffffffffffffffffffffffffffffffffffff1916827bffffffffffffffffffffffffffffffffffffffffffffffffffffffff1916145b8061107b575061107a82611aa5565b5b9050919050565b600033905090565b60008073ffffffffffffffffffffffffffffffffffffffff166003600084815260200190815260200160002060009054906101000a900473ffffffffffffffffffffffffffffffffffffffff1673ffffffffffffffffffffffffffffffffffffffff1614159050919050565b816005600083815260200190815260200160002060006101000a81548173ffffffffffffffffffffffffffffffffffffffff021916908373ffffffffffffffffffffffffffffffffffffffff160217905550808273ffffffffffffffffffffffffffffffffffffffff1661116983610937565b73ffffffffffffffffffffffffffffffffffffffff167f8c5be1e5ebec7d5bd14f71427d1e84f3dd0314c0f7b2291e5b200ac8c7c3b92560405160405180910390a45050565b60006111ba8261108a565b6111f9576040517f08c379a00000000000000000000000000000000000000000000000000000000081526004016111f090612faa565b60405180910390fd5b600061120483610937565b90508073ffffffffffffffffffffffffffffffffffffffff168473ffffffffffffffffffffffffffffffffffffffff16148061127357508373ffffffffffffffffffffffffffffffffffffffff1661125b846105e9565b73ffffffffffffffffffffffffffffffffffffffff16145b8061128457506112838185610e14565b5b91505092915050565b8273ffffffffffffffffffffffffffffffffffffffff166112ad82610937565b73ffffffffffffffffffffffffffffffffffffffff1614611303576040517f08c379a00000000000000000000000000000000000000000000000000000000081526004016112fa9061303c565b60405180910390fd5b600073ffffffffffffffffffffffffffffffffffffffff168273ffffffffffffffffffffffffffffffffffffffff161415611373576040517f08c379a000000000000000000000000000000000000000000000000000000000815260040161136a906130ce565b60405180910390fd5b61137e838383611b0f565b6113896000826110f6565b6001600460008573ffffffffffffffffffffffffffffffffffffffff1673ffffffffffffffffffffffffffffffffffffffff16815260200190815260200160002060008282546113d9919061311d565b925050819055506001600460008473ffffffffffffffffffffffffffffffffffffffff1673ffffffffffffffffffffffffffffffffffffffff16815260200190815260200160002060008282546114309190613151565b92505081905550816003600083815260200190815260200160002060006101000a81548173ffffffffffffffffffffffffffffffffffffffff021916908373ffffffffffffffffffffffffffffffffffffffff160217905550808273ffffffffffffffffffffffffffffffffffffffff168473ffffffffffffffffffffffffffffffffffffffff167fddf252ad1be2c89b69c2b068fc378daa952ba7f163c4a11628f55a4df523b3ef60405160405180910390a4505050565b600073ffffffffffffffffffffffffffffffffffffffff168273ffffffffffffffffffffffffffffffffffffffff161415611559576040517f08c379a0000000000000000000000000000000000000000000000000000000008152600401611550906131f3565b60405180910390fd5b6115628161108a565b156115a2576040517f08c379a00000000000000000000000000000000000000000000000000000000081526004016115999061325f565b60405180910390fd5b6115ae60008383611b0f565b6001600460008473ffffffffffffffffffffffffffffffffffffffff1673ffffffffffffffffffffffffffffffffffffffff16815260200190815260200160002060008282546115fe9190613151565b92505081905550816003600083815260200190815260200160002060006101000a81548173ffffffffffffffffffffffffffffffffffffffff021916908373ffffffffffffffffffffffffffffffffffffffff160217905550808273ffffffffffffffffffffffffffffffffffffffff16600073ffffffffffffffffffffffffffffffffffffffff167fddf252ad1be2c89b69c2b068fc378daa952ba7f163c4a11628f55a4df523b3ef60405160405180910390a45050565b60008060009054906101000a900473ffffffffffffffffffffffffffffffffffffffff169050816000806101000a81548173ffffffffffffffffffffffffffffffffffffffff021916908373ffffffffffffffffffffffffffffffffffffffff1602179055508173ffffffffffffffffffffffffffffffffffffffff168173ffffffffffffffffffffffffffffffffffffffff167f8be0079c531659141344cd1fd0a4f28419497f9722a3daafe3b4186f6b6457e060405160405180910390a35050565b8173ffffffffffffffffffffffffffffffffffffffff168373ffffffffffffffffffffffffffffffffffffffff1614156117ea576040517f08c379a00000000000000000000000000000000000000000000000000000000081526004016117e1906132cb565b60405180910390fd5b80600660008573ffffffffffffffffffffffffffffffffffffffff1673ffffffffffffffffffffffffffffffffffffffff16815260200190815260200160002060008473ffffffffffffffffffffffffffffffffffffffff1673ffffffffffffffffffffffffffffffffffffffff16815260200190815260200160002060006101000a81548160ff0219169083151502179055508173ffffffffffffffffffffffffffffffffffffffff168373ffffffffffffffffffffffffffffffffffffffff167f17307eab39ab6107e8899845ad3d59bd9653f200f220920489ca2b5937696c31836040516118db919061222f565b60405180910390a3505050565b6118f384848461128d565b6118ff84848484611c23565b61193e576040517f08c379a00000000000000000000000000000000000000000000000000000000081526004016119359061335d565b60405180910390fd5b50505050565b6060600082141561198c576040518060400160405280600181526020017f30000000000000000000000000000000000000000000000000000000000000008152509050611aa0565b600082905060005b600082146119be5780806119a79061337d565b915050600a826119b791906133f5565b9150611994565b60008167ffffffffffffffff8111156119da576119d9612265565b5b6040519080825280601f01601f191660200182016040528015611a0c5781602001600182028036833780820191505090505b5090505b60008514611a9957600182611a25919061311d565b9150600a85611a349190613426565b6030611a409190613151565b60f81b818381518110611a5657611a55612c61565b5b60200101907effffffffffffffffffffffffffffffffffffffffffffffffffffffffffffff1916908160001a905350600a85611a9291906133f5565b9450611a10565b8093505050505b919050565b60007f01ffc9a7000000000000000000000000000000000000000000000000000000007bffffffffffffffffffffffffffffffffffffffffffffffffffffffff1916827bffffffffffffffffffffffffffffffffffffffffffffffffffffffff1916149050919050565b611b1a838383611dba565b600073ffffffffffffffffffffffffffffffffffffffff168373ffffffffffffffffffffffffffffffffffffffff161415611b5d57611b5881611dbf565b611b9c565b8173ffffffffffffffffffffffffffffffffffffffff168373ffffffffffffffffffffffffffffffffffffffff1614611b9b57611b9a8382611e08565b5b5b600073ffffffffffffffffffffffffffffffffffffffff168273ffffffffffffffffffffffffffffffffffffffff161415611bdf57611bda81611f75565b611c1e565b8273ffffffffffffffffffffffffffffffffffffffff168273ffffffffffffffffffffffffffffffffffffffff1614611c1d57611c1c8282612046565b5b5b505050565b6000611c448473ffffffffffffffffffffffffffffffffffffffff166120c5565b15611dad578373ffffffffffffffffffffffffffffffffffffffff1663150b7a02611c6d611082565b8786866040518563ffffffff1660e01b8152600401611c8f94939291906134ac565b602060405180830381600087803b158015611ca957600080fd5b505af1925050508015611cda57506040513d601f19601f82011682018060405250810190611cd7919061350d565b60015b611d5d573d8060008114611d0a576040519150601f19603f3d011682016040523d82523d6000602084013e611d0f565b606091505b50600081511415611d55576040517f08c379a0000000000000000000000000000000000000000000000000000000008152600401611d4c9061335d565b60405180910390fd5b805181602001fd5b63150b7a0260e01b7bffffffffffffffffffffffffffffffffffffffffffffffffffffffff1916817bffffffffffffffffffffffffffffffffffffffffffffffffffffffff191614915050611db2565b600190505b949350505050565b505050565b600980549050600a600083815260200190815260200160002081905550600981908060018154018082558091505060019003906000526020600020016000909190919091505550565b60006001611e15846109e9565b611e1f919061311d565b9050600060086000848152602001908152602001600020549050818114611f04576000600760008673ffffffffffffffffffffffffffffffffffffffff1673ffffffffffffffffffffffffffffffffffffffff168152602001908152602001600020600084815260200190815260200160002054905080600760008773ffffffffffffffffffffffffffffffffffffffff1673ffffffffffffffffffffffffffffffffffffffff168152602001908152602001600020600084815260200190815260200160002081905550816008600083815260200190815260200160002081905550505b6008600084815260200190815260200160002060009055600760008573ffffffffffffffffffffffffffffffffffffffff1673ffffffffffffffffffffffffffffffffffffffff16815260200190815260200160002060008381526020019081526020016000206000905550505050565b60006001600980549050611f89919061311d565b90506000600a6000848152602001908152602001600020549050600060098381548110611fb957611fb8612c61565b5b906000526020600020015490508060098381548110611fdb57611fda612c61565b5b906000526020600020018190555081600a600083815260200190815260200160002081905550600a600085815260200190815260200160002060009055600980548061202a5761202961353a565b5b6001900381819060005260206000200160009055905550505050565b6000612051836109e9565b905081600760008573ffffffffffffffffffffffffffffffffffffffff1673ffffffffffffffffffffffffffffffffffffffff168152602001908152602001600020600083815260200190815260200160002081905550806008600084815260200190815260200160002081905550505050565b600080823b905060008111915050919050565b8280546120e4906128c3565b90600052602060002090601f016020900481019282612106576000855561214d565b82601f1061211f57805160ff191683800117855561214d565b8280016001018555821561214d579182015b8281111561214c578251825591602001919060010190612131565b5b50905061215a919061215e565b5090565b5b8082111561217757600081600090555060010161215f565b5090565b6000604051905090565b600080fd5b600080fd5b60007fffffffff0000000000000000000000000000000000000000000000000000000082169050919050565b6121c48161218f565b81146121cf57600080fd5b50565b6000813590506121e1816121bb565b92915050565b6000602082840312156121fd576121fc612185565b5b600061220b848285016121d2565b91505092915050565b60008115159050919050565b61222981612214565b82525050565b60006020820190506122446000830184612220565b92915050565b600080fd5b600080fd5b6000601f19601f8301169050919050565b7f4e487b7100000000000000000000000000000000000000000000000000000000600052604160045260246000fd5b61229d82612254565b810181811067ffffffffffffffff821117156122bc576122bb612265565b5b80604052505050565b60006122cf61217b565b90506122db8282612294565b919050565b600067ffffffffffffffff8211156122fb576122fa612265565b5b61230482612254565b9050602081019050919050565b82818337600083830152505050565b600061233361232e846122e0565b6122c5565b90508281526020810184848401111561234f5761234e61224f565b5b61235a848285612311565b509392505050565b600082601f8301126123775761237661224a565b5b8135612387848260208601612320565b91505092915050565b6000602082840312156123a6576123a5612185565b5b600082013567ffffffffffffffff8111156123c4576123c361218a565b5b6123d084828501612362565b91505092915050565b600081519050919050565b600082825260208201905092915050565b60005b838110156124135780820151818401526020810190506123f8565b83811115612422576000848401525b50505050565b6000612433826123d9565b61243d81856123e4565b935061244d8185602086016123f5565b61245681612254565b840191505092915050565b6000602082019050818103600083015261247b8184612428565b905092915050565b6000819050919050565b61249681612483565b81146124a157600080fd5b50565b6000813590506124b38161248d565b92915050565b6000602082840312156124cf576124ce612185565b5b60006124dd848285016124a4565b91505092915050565b600073ffffffffffffffffffffffffffffffffffffffff82169050919050565b6000612511826124e6565b9050919050565b61252181612506565b82525050565b600060208201905061253c6000830184612518565b92915050565b61254b81612506565b811461255657600080fd5b50565b60008135905061256881612542565b92915050565b6000806040838503121561258557612584612185565b5b600061259385828601612559565b92505060206125a4858286016124a4565b9150509250929050565b6125b781612483565b82525050565b60006020820190506125d260008301846125ae565b92915050565b6000806000606084860312156125f1576125f0612185565b5b60006125ff86828701612559565b935050602061261086828701612559565b9250506040612621868287016124a4565b9150509250925092565b60006020828403121561264157612640612185565b5b600061264f84828501612559565b91505092915050565b61266181612214565b811461266c57600080fd5b50565b60008135905061267e81612658565b92915050565b6000806040838503121561269b5761269a612185565b5b60006126a985828601612559565b92505060206126ba8582860161266f565b9150509250929050565b600067ffffffffffffffff8211156126df576126de612265565b5b6126e882612254565b9050602081019050919050565b6000612708612703846126c4565b6122c5565b9050828152602081018484840111156127245761272361224f565b5b61272f848285612311565b509392505050565b600082601f83011261274c5761274b61224a565b5b813561275c8482602086016126f5565b91505092915050565b6000806000806080858703121561277f5761277e612185565b5b600061278d87828801612559565b945050602061279e87828801612559565b93505060406127af878288016124a4565b925050606085013567ffffffffffffffff8111156127d0576127cf61218a565b5b6127dc87828801612737565b91505092959194509250565b600080604083850312156127ff576127fe612185565b5b600061280d85828601612559565b925050602061281e85828601612559565b9150509250929050565b7f4f776e61626c653a2063616c6c6572206973206e6f7420746865206f776e6572600082015250565b600061285e6020836123e4565b915061286982612828565b602082019050919050565b6000602082019050818103600083015261288d81612851565b9050919050565b7f4e487b7100000000000000000000000000000000000000000000000000000000600052602260045260246000fd5b600060028204905060018216806128db57607f821691505b602082108114156128ef576128ee612894565b5b50919050565b7f4552433732313a20617070726f76656420717565727920666f72206e6f6e657860008201527f697374656e7420746f6b656e0000000000000000000000000000000000000000602082015250565b6000612951602c836123e4565b915061295c826128f5565b604082019050919050565b6000602082019050818103600083015261298081612944565b9050919050565b7f4552433732313a20617070726f76616c20746f2063757272656e74206f776e6560008201527f7200000000000000000000000000000000000000000000000000000000000000602082015250565b60006129e36021836123e4565b91506129ee82612987565b604082019050919050565b60006020820190508181036000830152612a12816129d6565b9050919050565b7f4552433732313a20617070726f76652063616c6c6572206973206e6f74206f7760008201527f6e6572206e6f7220617070726f76656420666f7220616c6c0000000000000000602082015250565b6000612a756038836123e4565b9150612a8082612a19565b604082019050919050565b60006020820190508181036000830152612aa481612a68565b9050919050565b7f4552433732313a207472616e736665722063616c6c6572206973206e6f74206f60008201527f776e6572206e6f7220617070726f766564000000000000000000000000000000602082015250565b6000612b076031836123e4565b9150612b1282612aab565b604082019050919050565b60006020820190508181036000830152612b3681612afa565b9050919050565b7f455243373231456e756d657261626c653a206f776e657220696e646578206f7560008201527f74206f6620626f756e6473000000000000000000000000000000000000000000602082015250565b6000612b99602b836123e4565b9150612ba482612b3d565b604082019050919050565b60006020820190508181036000830152612bc881612b8c565b9050919050565b7f455243373231456e756d657261626c653a20676c6f62616c20696e646578206f60008201527f7574206f6620626f756e64730000000000000000000000000000000000000000602082015250565b6000612c2b602c836123e4565b9150612c3682612bcf565b604082019050919050565b60006020820190508181036000830152612c5a81612c1e565b9050919050565b7f4e487b7100000000000000000000000000000000000000000000000000000000600052603260045260246000fd5b7f4552433732313a206f776e657220717565727920666f72206e6f6e657869737460008201527f656e7420746f6b656e0000000000000000000000000000000000000000000000602082015250565b6000612cec6029836123e4565b9150612cf782612c90565b604082019050919050565b60006020820190508181036000830152612d1b81612cdf565b9050919050565b7f4552433732313a2062616c616e636520717565727920666f7220746865207a6560008201527f726f206164647265737300000000000000000000000000000000000000000000602082015250565b6000612d7e602a836123e4565b9150612d8982612d22565b604082019050919050565b60006020820190508181036000830152612dad81612d71565b9050919050565b7f4552433732314d657461646174613a2055524920717565727920666f72206e6f60008201527f6e6578697374656e7420746f6b656e0000000000000000000000000000000000602082015250565b6000612e10602f836123e4565b9150612e1b82612db4565b604082019050919050565b60006020820190508181036000830152612e3f81612e03565b9050919050565b600081905092915050565b6000612e5c826123d9565b612e668185612e46565b9350612e768185602086016123f5565b80840191505092915050565b6000612e8e8285612e51565b9150612e9a8284612e51565b91508190509392505050565b7f4f776e61626c653a206e6577206f776e657220697320746865207a65726f206160008201527f6464726573730000000000000000000000000000000000000000000000000000602082015250565b6000612f026026836123e4565b9150612f0d82612ea6565b604082019050919050565b60006020820190508181036000830152612f3181612ef5565b9050919050565b7f4552433732313a206f70657261746f7220717565727920666f72206e6f6e657860008201527f697374656e7420746f6b656e0000000000000000000000000000000000000000602082015250565b6000612f94602c836123e4565b9150612f9f82612f38565b604082019050919050565b60006020820190508181036000830152612fc381612f87565b9050919050565b7f4552433732313a207472616e73666572206f6620746f6b656e2074686174206960008201527f73206e6f74206f776e0000000000000000000000000000000000000000000000602082015250565b60006130266029836123e4565b915061303182612fca565b604082019050919050565b6000602082019050818103600083015261305581613019565b9050919050565b7f4552433732313a207472616e7366657220746f20746865207a65726f2061646460008201527f7265737300000000000000000000000000000000000000000000000000000000602082015250565b60006130b86024836123e4565b91506130c38261305c565b604082019050919050565b600060208201905081810360008301526130e7816130ab565b9050919050565b7f4e487b7100000000000000000000000000000000000000000000000000000000600052601160045260246000fd5b600061312882612483565b915061313383612483565b925082821015613146576131456130ee565b5b828203905092915050565b600061315c82612483565b915061316783612483565b9250827fffffffffffffffffffffffffffffffffffffffffffffffffffffffffffffffff0382111561319c5761319b6130ee565b5b828201905092915050565b7f4552433732313a206d696e7420746f20746865207a65726f2061646472657373600082015250565b60006131dd6020836123e4565b91506131e8826131a7565b602082019050919050565b6000602082019050818103600083015261320c816131d0565b9050919050565b7f4552433732313a20746f6b656e20616c7265616479206d696e74656400000000600082015250565b6000613249601c836123e4565b915061325482613213565b602082019050919050565b600060208201905081810360008301526132788161323c565b9050919050565b7f4552433732313a20617070726f766520746f2063616c6c657200000000000000600082015250565b60006132b56019836123e4565b91506132c08261327f565b602082019050919050565b600060208201905081810360008301526132e4816132a8565b9050919050565b7f4552433732313a207472616e7366657220746f206e6f6e20455243373231526560008201527f63656976657220696d706c656d656e7465720000000000000000000000000000602082015250565b60006133476032836123e4565b9150613352826132eb565b604082019050919050565b600060208201905081810360008301526133768161333a565b9050919050565b600061338882612483565b91507fffffffffffffffffffffffffffffffffffffffffffffffffffffffffffffffff8214156133bb576133ba6130ee565b5b600182019050919050565b7f4e487b7100000000000000000000000000000000000000000000000000000000600052601260045260246000fd5b600061340082612483565b915061340b83612483565b92508261341b5761341a6133c6565b5b828204905092915050565b600061343182612483565b915061343c83612483565b92508261344c5761344b6133c6565b5b828206905092915050565b600081519050919050565b600082825260208201905092915050565b600061347e82613457565b6134888185613462565b93506134988185602086016123f5565b6134a181612254565b840191505092915050565b60006080820190506134c16000830187612518565b6134ce6020830186612518565b6134db60408301856125ae565b81810360608301526134ed8184613473565b905095945050505050565b600081519050613507816121bb565b92915050565b60006020828403121561352357613522612185565b5b6000613531848285016134f8565b91505092915050565b7f4e487b7100000000000000000000000000000000000000000000000000000000600052603160045260246000fdfea26469706673582212208489cec177988c3b127b879d55331bedc8016357e75ce0efb9f7cc3c7ee9621c64736f6c63430008080033",
  "linkReferences": {},
  "deployedLinkReferences": {}
}