{
  "_format": "hh-sol-artifact-1",
  "contractName": "NFTMarket",
  "sourceName": "contracts/nftMarket.sol",
  "abi": [
    {
      "inputs": [
        {
          "internalType": "address",
          "name": "_WETH",
          "type": "address"
        },
        {
          "internalType": "address",
          "name": "_feeRecipient",
          "type": "address"
        }
      ],
      "stateMutability": "nonpayable",
      "type": "constructor"
    },
    {
      "anonymous": false,
      "inputs": [
        {
          "indexed": true,
          "internalType": "address",
          "name": "user",
          "type": "address"
        },
        {
          "indexed": false,
          "internalType": "address",
          "name": "nftContract",
          "type": "address"
        },
        {
          "indexed": false,
          "internalType": "uint256",
          "name": "tokenId",
          "type": "uint256"
        },
        {
          "indexed": false,
          "internalType": "uint256",
          "name": "nonce",
          "type": "uint256"
        }
      ],
      "name": "ExpiredNonce",
      "type": "event"
    },
    {
      "anonymous": false,
      "inputs": [
        {
          "indexed": true,
          "internalType": "address",
          "name": "buyer",
          "type": "address"
        },
        {
          "indexed": false,
          "internalType": "address",
          "name": "seller",
          "type": "address"
        },
        {
          "indexed": false,
          "internalType": "address",
          "name": "nftContract",
          "type": "address"
        },
        {
          "indexed": false,
          "internalType": "uint256",
          "name": "tokenId",
          "type": "uint256"
        },
        {
          "indexed": false,
          "internalType": "uint256",
          "name": "price",
          "type": "uint256"
        },
        {
          "indexed": false,
          "internalType": "uint256",
          "name": "fee",
          "type": "uint256"
        },
        {
          "indexed": false,
          "internalType": "uint256",
          "name": "orderId",
          "type": "uint256"
        }
      ],
      "name": "ListingPurchased",
      "type": "event"
    },
    {
      "anonymous": false,
      "inputs": [
        {
          "indexed": true,
          "internalType": "address",
          "name": "nftContract",
          "type": "address"
        },
        {
          "indexed": false,
          "internalType": "bool",
          "name": "isWhitelisted",
          "type": "bool"
        }
      ],
      "name": "NFTWhitelistUpdated",
      "type": "event"
    },
    {
      "anonymous": false,
      "inputs": [
        {
          "indexed": true,
          "internalType": "address",
          "name": "seller",
          "type": "address"
        },
        {
          "indexed": false,
          "internalType": "address",
          "name": "buyer",
          "type": "address"
        },
        {
          "indexed": false,
          "internalType": "address",
          "name": "nftContract",
          "type": "address"
        },
        {
          "indexed": false,
          "internalType": "uint256",
          "name": "tokenId",
          "type": "uint256"
        },
        {
          "indexed": false,
          "internalType": "uint256",
          "name": "price",
          "type": "uint256"
        },
        {
          "indexed": false,
          "internalType": "uint256",
          "name": "fee",
          "type": "uint256"
        },
        {
          "indexed": false,
          "internalType": "uint256",
          "name": "orderId",
          "type": "uint256"
        }
      ],
      "name": "OfferAccepted",
      "type": "event"
    },
    {
      "anonymous": false,
      "inputs": [
        {
          "indexed": true,
          "internalType": "address",
          "name": "previousOwner",
          "type": "address"
        },
        {
          "indexed": true,
          "internalType": "address",
          "name": "newOwner",
          "type": "address"
        }
      ],
      "name": "OwnershipTransferred",
      "type": "event"
    },
    {
      "anonymous": false,
      "inputs": [
        {
          "indexed": false,
          "internalType": "bool",
          "name": "enabled",
          "type": "bool"
        }
      ],
      "name": "WhitelistModeUpdated",
      "type": "event"
    },
    {
      "inputs": [],
      "name": "WETH",
      "outputs": [
        {
          "internalType": "address",
          "name": "",
          "type": "address"
        }
      ],
      "stateMutability": "view",
      "type": "function"
    },
    {
      "inputs": [
        {
          "internalType": "address",
          "name": "buyer",
          "type": "address"
        },
        {
          "internalType": "address",
          "name": "nftContract",
          "type": "address"
        },
        {
          "internalType": "uint256",
          "name": "tokenId",
          "type": "uint256"
        },
        {
          "internalType": "uint256",
          "name": "price",
          "type": "uint256"
        },
        {
          "internalType": "uint256",
          "name": "expiry",
          "type": "uint256"
        },
        {
          "internalType": "uint256",
          "name": "orderId",
          "type": "uint256"
        },
        {
          "internalType": "bytes",
          "name": "buyerSig",
          "type": "bytes"
        }
      ],
      "name": "acceptOffer",
      "outputs": [],
      "stateMutability": "nonpayable",
      "type": "function"
    },
    {
      "inputs": [
        {
          "internalType": "address[]",
          "name": "nftContracts",
          "type": "address[]"
        },
        {
          "internalType": "uint256[]",
          "name": "tokenIds",
          "type": "uint256[]"
        }
      ],
      "name": "batchCancel",
      "outputs": [],
      "stateMutability": "nonpayable",
      "type": "function"
    },
    {
      "inputs": [
        {
          "internalType": "address",
          "name": "seller",
          "type": "address"
        },
        {
          "internalType": "address",
          "name": "nftContract",
          "type": "address"
        },
        {
          "internalType": "uint256",
          "name": "tokenId",
          "type": "uint256"
        },
        {
          "internalType": "uint256",
          "name": "price",
          "type": "uint256"
        },
        {
          "internalType": "uint256",
          "name": "expiry",
          "type": "uint256"
        },
        {
          "internalType": "uint256",
          "name": "orderId",
          "type": "uint256"
        },
        {
          "internalType": "bytes",
          "name": "sellerSig",
          "type": "bytes"
        }
      ],
      "name": "buyListing",
      "outputs": [],
      "stateMutability": "nonpayable",
      "type": "function"
    },
    {
      "inputs": [
        {
          "internalType": "address",
          "name": "nftContract",
          "type": "address"
        },
        {
          "internalType": "uint256",
          "name": "tokenId",
          "type": "uint256"
        }
      ],
      "name": "cancel",
      "outputs": [],
      "stateMutability": "nonpayable",
      "type": "function"
    },
    {
      "inputs": [],
      "name": "feeRate",
      "outputs": [
        {
          "internalType": "uint256",
          "name": "",
          "type": "uint256"
        }
      ],
      "stateMutability": "view",
      "type": "function"
    },
    {
      "inputs": [],
      "name": "feeRecipient",
      "outputs": [
        {
          "internalType": "address",
          "name": "",
          "type": "address"
        }
      ],
      "stateMutability": "view",
      "type": "function"
    },
    {
      "inputs": [
        {
          "internalType": "address",
          "name": "",
          "type": "address"
        }
      ],
      "name": "nftWhitelist",
      "outputs": [
        {
          "internalType": "bool",
          "name": "",
          "type": "bool"
        }
      ],
      "stateMutability": "view",
      "type": "function"
    },
    {
      "inputs": [
        {
          "internalType": "address",
          "name": "",
          "type": "address"
        },
        {
          "internalType": "address",
          "name": "",
          "type": "address"
        },
        {
          "internalType": "uint256",
          "name": "",
          "type": "uint256"
        }
      ],
      "name": "nonces",
      "outputs": [
        {
          "internalType": "uint256",
          "name": "",
          "type": "uint256"
        }
      ],
      "stateMutability": "view",
      "type": "function"
    },
    {
      "inputs": [],
      "name": "owner",
      "outputs": [
        {
          "internalType": "address",
          "name": "",
          "type": "address"
        }
      ],
      "stateMutability": "view",
      "type": "function"
    },
    {
      "inputs": [],
      "name": "renounceOwnership",
      "outputs": [],
      "stateMutability": "nonpayable",
      "type": "function"
    },
    {
      "inputs": [
        {
          "internalType": "uint256",
          "name": "_feeRate",
          "type": "uint256"
        }
      ],
      "name": "setFeeRate",
      "outputs": [],
      "stateMutability": "nonpayable",
      "type": "function"
    },
    {
      "inputs": [
        {
          "internalType": "address",
          "name": "_feeRecipient",
          "type": "address"
        }
      ],
      "name": "setFeeRecipient",
      "outputs": [],
      "stateMutability": "nonpayable",
      "type": "function"
    },
    {
      "inputs": [
        {
          "internalType": "address",
          "name": "nftContract",
          "type": "address"
        },
        {
          "internalType": "bool",
          "name": "isWhitelisted",
          "type": "bool"
        }
      ],
      "name": "setNFTWhitelist",
      "outputs": [],
      "stateMutability": "nonpayable",
      "type": "function"
    },
    {
      "inputs": [
        {
          "internalType": "bool",
          "name": "enabled",
          "type": "bool"
        }
      ],
      "name": "setWhitelistEnabled",
      "outputs": [],
      "stateMutability": "nonpayable",
      "type": "function"
    },
    {
      "inputs": [
        {
          "internalType": "address",
          "name": "newOwner",
          "type": "address"
        }
      ],
      "name": "transferOwnership",
      "outputs": [],
      "stateMutability": "nonpayable",
      "type": "function"
    },
    {
      "inputs": [],
      "name": "whitelistEnabled",
      "outputs": [
        {
          "internalType": "bool",
          "name": "",
          "type": "bool"
        }
      ],
      "stateMutability": "view",
      "type": "function"
    }
  ],
  "bytecode": "0x61016060405260fa6003556000600660006101000a81548160ff0219169083151502179055503480156200003257600080fd5b506040516200348038038062003480833981810160405281019062000058919062000396565b6040518060400160405280600981526020017f4e46544d61726b657400000000000000000000000000000000000000000000008152506040518060400160405280600181526020017f310000000000000000000000000000000000000000000000000000000000000081525060008280519060200120905060008280519060200120905060007f8b73c3c69bb8fe3d512ecc4cf759cc79239f7b179b0ffacaa9a75d522b39400f90508260e081815250508161010081815250504660a081815250506200012d8184846200022260201b60201c565b608081815250503073ffffffffffffffffffffffffffffffffffffffff1660c08173ffffffffffffffffffffffffffffffffffffffff1660601b8152505080610120818152505050505050506001600081905550620001a1620001956200025e60201b60201c565b6200026660201b60201c565b8173ffffffffffffffffffffffffffffffffffffffff166101408173ffffffffffffffffffffffffffffffffffffffff1660601b8152505080600460006101000a81548173ffffffffffffffffffffffffffffffffffffffff021916908373ffffffffffffffffffffffffffffffffffffffff160217905550505062000481565b600083838346306040516020016200023f95949392919062000424565b6040516020818303038152906040528051906020012090509392505050565b600033905090565b6000600160009054906101000a900473ffffffffffffffffffffffffffffffffffffffff16905081600160006101000a81548173ffffffffffffffffffffffffffffffffffffffff021916908373ffffffffffffffffffffffffffffffffffffffff1602179055508173ffffffffffffffffffffffffffffffffffffffff168173ffffffffffffffffffffffffffffffffffffffff167f8be0079c531659141344cd1fd0a4f28419497f9722a3daafe3b4186f6b6457e060405160405180910390a35050565b600080fd5b600073ffffffffffffffffffffffffffffffffffffffff82169050919050565b60006200035e8262000331565b9050919050565b620003708162000351565b81146200037c57600080fd5b50565b600081519050620003908162000365565b92915050565b60008060408385031215620003b057620003af6200032c565b5b6000620003c0858286016200037f565b9250506020620003d3858286016200037f565b9150509250929050565b6000819050919050565b620003f281620003dd565b82525050565b6000819050919050565b6200040d81620003f8565b82525050565b6200041e8162000351565b82525050565b600060a0820190506200043b6000830188620003e7565b6200044a6020830187620003e7565b620004596040830186620003e7565b62000468606083018562000402565b62000477608083018462000413565b9695505050505050565b60805160a05160c05160601c60e05161010051610120516101405160601c612f82620004fe600039600081816106890152818161074401528181610b8d01528181610c48015261111a015260006119500152600061199201526000611971015260006118a6015260006118fc015260006119250152612f826000f3fe608060405234801561001057600080fd5b506004361061010b5760003560e01c8063715018a6116100a2578063ad5c464811610071578063ad5c46481461026a578063bcfe070f14610288578063e74b981b146102a4578063f2fde38b146102c0578063fbf58dbb146102dc5761010b565b8063715018a6146102085780638da5cb5b14610212578063978bbdb91461023057806398590ef91461024e5761010b565b80634636af11116100de5780634636af1114610180578063469048401461019c57806346b31b6e146101ba57806351fb012d146101ea5761010b565b8063026093c814610110578063052d9e7e1461012c578063174d52a91461014857806345596e2e14610164575b600080fd5b61012a60048036038101906101259190611edf565b61030c565b005b61014660048036038101906101419190611fd9565b610905565b005b610162600480360381019061015d9190611edf565b6109d5565b005b61017e60048036038101906101799190612006565b610e08565b005b61019a60048036038101906101959190612033565b610ed3565b005b6101a4610ff8565b6040516101b19190612082565b60405180910390f35b6101d460048036038101906101cf919061209d565b61101e565b6040516101e191906120d9565b60405180910390f35b6101f261103e565b6040516101ff91906120d9565b60405180910390f35b610210611051565b005b61021a6110d9565b6040516102279190612082565b60405180910390f35b610238611103565b6040516102459190612103565b60405180910390f35b6102686004803603810190610263919061211e565b611109565b005b610272611118565b60405161027f9190612082565b60405180910390f35b6102a2600480360381019061029d919061220a565b61113c565b005b6102be60048036038101906102b9919061209d565b6111f7565b005b6102da60048036038101906102d5919061209d565b611327565b005b6102f660048036038101906102f1919061228b565b61141f565b6040516103039190612103565b60405180910390f35b60026000541415610352576040517f08c379a00000000000000000000000000000000000000000000000000000000081526004016103499061233b565b60405180910390fd5b600260008190555061036387611451565b6103a2576040517f08c379a0000000000000000000000000000000000000000000000000000000008152600401610399906123a7565b60405180910390fd5b6104a37f25f2abbd97d164b554d8a804d758837aaccc58d9933636d3f4706456c1cb4a8389898989600260008f73ffffffffffffffffffffffffffffffffffffffff1673ffffffffffffffffffffffffffffffffffffffff16815260200190815260200160002060008e73ffffffffffffffffffffffffffffffffffffffff1673ffffffffffffffffffffffffffffffffffffffff16815260200190815260200160002060008d8152602001908152602001600020548a89898080601f016020809104026020016040519081016040528093929190818152602001838380828437600081840152601f19601f820116905080830192505050505050506114bf565b60008790503373ffffffffffffffffffffffffffffffffffffffff168173ffffffffffffffffffffffffffffffffffffffff16636352211e896040518263ffffffff1660e01b81526004016104f89190612103565b60206040518083038186803b15801561051057600080fd5b505afa158015610524573d6000803e3d6000fd5b505050506040513d601f19601f8201168201806040525081019061054891906123dc565b73ffffffffffffffffffffffffffffffffffffffff161461059e576040517f08c379a000000000000000000000000000000000000000000000000000000000815260040161059590612455565b60405180910390fd5b8073ffffffffffffffffffffffffffffffffffffffff1663e985e9c533306040518363ffffffff1660e01b81526004016105d9929190612475565b60206040518083038186803b1580156105f157600080fd5b505afa158015610605573d6000803e3d6000fd5b505050506040513d601f19601f8201168201806040525081019061062991906124b3565b610668576040517f08c379a000000000000000000000000000000000000000000000000000000000815260040161065f9061252c565b60405180910390fd5b60006127106003548861067b919061257b565b6106859190612604565b90507f000000000000000000000000000000000000000000000000000000000000000073ffffffffffffffffffffffffffffffffffffffff166323b872dd8b33848b6106d19190612635565b6040518463ffffffff1660e01b81526004016106ef93929190612669565b602060405180830381600087803b15801561070957600080fd5b505af115801561071d573d6000803e3d6000fd5b505050506040513d601f19601f8201168201806040525081019061074191906124b3565b507f000000000000000000000000000000000000000000000000000000000000000073ffffffffffffffffffffffffffffffffffffffff166323b872dd8b600460009054906101000a900473ffffffffffffffffffffffffffffffffffffffff16846040518463ffffffff1660e01b81526004016107c193929190612669565b602060405180830381600087803b1580156107db57600080fd5b505af11580156107ef573d6000803e3d6000fd5b505050506040513d601f19601f8201168201806040525081019061081391906124b3565b508173ffffffffffffffffffffffffffffffffffffffff166342842e0e338c8b6040518463ffffffff1660e01b815260040161085193929190612669565b600060405180830381600087803b15801561086b57600080fd5b505af115801561087f573d6000803e3d6000fd5b5050505061088e8a8a8a61169b565b610899338a8a61169b565b3373ffffffffffffffffffffffffffffffffffffffff167fcbe92017b4a841d643f87da4dc55e382d57e508c17e82e57d2836d7d166aa2338b8b8b8b868b6040516108e9969594939291906126a0565b60405180910390a2505060016000819055505050505050505050565b61090d611793565b73ffffffffffffffffffffffffffffffffffffffff1661092b6110d9565b73ffffffffffffffffffffffffffffffffffffffff1614610981576040517f08c379a00000000000000000000000000000000000000000000000000000000081526004016109789061274d565b60405180910390fd5b80600660006101000a81548160ff0219169083151502179055507f2d096e0ce298196d706256be0f2a6ef71011a475a3224558a3a71386da284e65816040516109ca91906120d9565b60405180910390a150565b60026000541415610a1b576040517f08c379a0000000000000000000000000000000000000000000000000000000008152600401610a129061233b565b60405180910390fd5b6002600081905550610a2c87611451565b610a6b576040517f08c379a0000000000000000000000000000000000000000000000000000000008152600401610a62906123a7565b60405180910390fd5b610b6c7fed5f7bea24e204ef03159fc3e0181cb15470e935b9730016598269e861fe1b4c89898989600260008f73ffffffffffffffffffffffffffffffffffffffff1673ffffffffffffffffffffffffffffffffffffffff16815260200190815260200160002060008e73ffffffffffffffffffffffffffffffffffffffff1673ffffffffffffffffffffffffffffffffffffffff16815260200190815260200160002060008d8152602001908152602001600020548a89898080601f016020809104026020016040519081016040528093929190818152602001838380828437600081840152601f19601f820116905080830192505050505050506114bf565b600061271060035487610b7f919061257b565b610b899190612604565b90507f000000000000000000000000000000000000000000000000000000000000000073ffffffffffffffffffffffffffffffffffffffff166323b872dd338b848a610bd59190612635565b6040518463ffffffff1660e01b8152600401610bf393929190612669565b602060405180830381600087803b158015610c0d57600080fd5b505af1158015610c21573d6000803e3d6000fd5b505050506040513d601f19601f82011682018060405250810190610c4591906124b3565b507f000000000000000000000000000000000000000000000000000000000000000073ffffffffffffffffffffffffffffffffffffffff166323b872dd33600460009054906101000a900473ffffffffffffffffffffffffffffffffffffffff16846040518463ffffffff1660e01b8152600401610cc593929190612669565b602060405180830381600087803b158015610cdf57600080fd5b505af1158015610cf3573d6000803e3d6000fd5b505050506040513d601f19601f82011682018060405250810190610d1791906124b3565b508773ffffffffffffffffffffffffffffffffffffffff166342842e0e8a338a6040518463ffffffff1660e01b8152600401610d5593929190612669565b600060405180830381600087803b158015610d6f57600080fd5b505af1158015610d83573d6000803e3d6000fd5b50505050610d9289898961169b565b610d9d33898961169b565b3373ffffffffffffffffffffffffffffffffffffffff167f4fa2a9bcec31f5d47c4b59e27c5b5b2295cb1e31e6def63bb055f3cb9a9777e68a8a8a8a868a604051610ded969594939291906126a0565b60405180910390a25060016000819055505050505050505050565b610e10611793565b73ffffffffffffffffffffffffffffffffffffffff16610e2e6110d9565b73ffffffffffffffffffffffffffffffffffffffff1614610e84576040517f08c379a0000000000000000000000000000000000000000000000000000000008152600401610e7b9061274d565b60405180910390fd5b612710811115610ec9576040517f08c379a0000000000000000000000000000000000000000000000000000000008152600401610ec0906127b9565b60405180910390fd5b8060038190555050565b610edb611793565b73ffffffffffffffffffffffffffffffffffffffff16610ef96110d9565b73ffffffffffffffffffffffffffffffffffffffff1614610f4f576040517f08c379a0000000000000000000000000000000000000000000000000000000008152600401610f469061274d565b60405180910390fd5b80600560008473ffffffffffffffffffffffffffffffffffffffff1673ffffffffffffffffffffffffffffffffffffffff16815260200190815260200160002060006101000a81548160ff0219169083151502179055508173ffffffffffffffffffffffffffffffffffffffff167f7b9d1cd53323ed56343e0bd96fa461c2cc2aaf207f9091032893bbbafc5014a482604051610fec91906120d9565b60405180910390a25050565b600460009054906101000a900473ffffffffffffffffffffffffffffffffffffffff1681565b60056020528060005260406000206000915054906101000a900460ff1681565b600660009054906101000a900460ff1681565b611059611793565b73ffffffffffffffffffffffffffffffffffffffff166110776110d9565b73ffffffffffffffffffffffffffffffffffffffff16146110cd576040517f08c379a00000000000000000000000000000000000000000000000000000000081526004016110c49061274d565b60405180910390fd5b6110d7600061179b565b565b6000600160009054906101000a900473ffffffffffffffffffffffffffffffffffffffff16905090565b60035481565b61111433838361169b565b5050565b7f000000000000000000000000000000000000000000000000000000000000000081565b818190508484905014611184576040517f08c379a000000000000000000000000000000000000000000000000000000000815260040161117b90612825565b60405180910390fd5b60005b848490508110156111f0576111dd338686848181106111a9576111a8612845565b5b90506020020160208101906111be919061209d565b8585858181106111d1576111d0612845565b5b9050602002013561169b565b80806111e890612874565b915050611187565b5050505050565b6111ff611793565b73ffffffffffffffffffffffffffffffffffffffff1661121d6110d9565b73ffffffffffffffffffffffffffffffffffffffff1614611273576040517f08c379a000000000000000000000000000000000000000000000000000000000815260040161126a9061274d565b60405180910390fd5b600073ffffffffffffffffffffffffffffffffffffffff168173ffffffffffffffffffffffffffffffffffffffff1614156112e3576040517f08c379a00000000000000000000000000000000000000000000000000000000081526004016112da90612909565b60405180910390fd5b80600460006101000a81548173ffffffffffffffffffffffffffffffffffffffff021916908373ffffffffffffffffffffffffffffffffffffffff16021790555050565b61132f611793565b73ffffffffffffffffffffffffffffffffffffffff1661134d6110d9565b73ffffffffffffffffffffffffffffffffffffffff16146113a3576040517f08c379a000000000000000000000000000000000000000000000000000000000815260040161139a9061274d565b60405180910390fd5b600073ffffffffffffffffffffffffffffffffffffffff168173ffffffffffffffffffffffffffffffffffffffff161415611413576040517f08c379a000000000000000000000000000000000000000000000000000000000815260040161140a9061299b565b60405180910390fd5b61141c8161179b565b50565b600260205282600052604060002060205281600052604060002060205280600052604060002060009250925050505481565b6000600660009054906101000a900460ff1615806114b85750600560008373ffffffffffffffffffffffffffffffffffffffff1673ffffffffffffffffffffffffffffffffffffffff16815260200190815260200160002060009054906101000a900460ff165b9050919050565b81421115611502576040517f08c379a00000000000000000000000000000000000000000000000000000000081526004016114f990612a07565b60405180910390fd5b82600260008973ffffffffffffffffffffffffffffffffffffffff1673ffffffffffffffffffffffffffffffffffffffff16815260200190815260200160002060008873ffffffffffffffffffffffffffffffffffffffff1673ffffffffffffffffffffffffffffffffffffffff168152602001908152602001600020600087815260200190815260200160002054146115d1576040517f08c379a00000000000000000000000000000000000000000000000000000000081526004016115c890612a73565b60405180910390fd5b600061160e898989898989896040516020016115f39796959493929190612aac565b60405160208183030381529060405280519060200120611861565b90508773ffffffffffffffffffffffffffffffffffffffff1661163a838361187b90919063ffffffff16565b73ffffffffffffffffffffffffffffffffffffffff1614611690576040517f08c379a000000000000000000000000000000000000000000000000000000000815260040161168790612b67565b60405180910390fd5b505050505050505050565b8273ffffffffffffffffffffffffffffffffffffffff167f2afadfdae9c0c6e1bf13d94459a80a74161d2e6b684d5290980ab3aa2e33c09b8383600260008873ffffffffffffffffffffffffffffffffffffffff1673ffffffffffffffffffffffffffffffffffffffff16815260200190815260200160002060008773ffffffffffffffffffffffffffffffffffffffff1673ffffffffffffffffffffffffffffffffffffffff1681526020019081526020016000206000868152602001908152602001600020600081548092919061177390612874565b9190505560405161178693929190612b87565b60405180910390a2505050565b600033905090565b6000600160009054906101000a900473ffffffffffffffffffffffffffffffffffffffff16905081600160006101000a81548173ffffffffffffffffffffffffffffffffffffffff021916908373ffffffffffffffffffffffffffffffffffffffff1602179055508173ffffffffffffffffffffffffffffffffffffffff168173ffffffffffffffffffffffffffffffffffffffff167f8be0079c531659141344cd1fd0a4f28419497f9722a3daafe3b4186f6b6457e060405160405180910390a35050565b600061187461186e6118a2565b836119bc565b9050919050565b600080600061188a85856119ef565b9150915061189781611a72565b819250505092915050565b60007f000000000000000000000000000000000000000000000000000000000000000073ffffffffffffffffffffffffffffffffffffffff163073ffffffffffffffffffffffffffffffffffffffff1614801561191e57507f000000000000000000000000000000000000000000000000000000000000000046145b1561194b577f000000000000000000000000000000000000000000000000000000000000000090506119b9565b6119b67f00000000000000000000000000000000000000000000000000000000000000007f00000000000000000000000000000000000000000000000000000000000000007f0000000000000000000000000000000000000000000000000000000000000000611c47565b90505b90565b600082826040516020016119d1929190612c36565b60405160208183030381529060405280519060200120905092915050565b600080604183511415611a315760008060006020860151925060408601519150606086015160001a9050611a2587828585611c81565b94509450505050611a6b565b604083511415611a62576000806020850151915060408501519050611a57868383611d8e565b935093505050611a6b565b60006002915091505b9250929050565b60006004811115611a8657611a85612c6d565b5b816004811115611a9957611a98612c6d565b5b1415611aa457611c44565b60016004811115611ab857611ab7612c6d565b5b816004811115611acb57611aca612c6d565b5b1415611b0c576040517f08c379a0000000000000000000000000000000000000000000000000000000008152600401611b0390612ce8565b60405180910390fd5b60026004811115611b2057611b1f612c6d565b5b816004811115611b3357611b32612c6d565b5b1415611b74576040517f08c379a0000000000000000000000000000000000000000000000000000000008152600401611b6b90612d54565b60405180910390fd5b60036004811115611b8857611b87612c6d565b5b816004811115611b9b57611b9a612c6d565b5b1415611bdc576040517f08c379a0000000000000000000000000000000000000000000000000000000008152600401611bd390612de6565b60405180910390fd5b600480811115611bef57611bee612c6d565b5b816004811115611c0257611c01612c6d565b5b1415611c43576040517f08c379a0000000000000000000000000000000000000000000000000000000008152600401611c3a90612e78565b60405180910390fd5b5b50565b60008383834630604051602001611c62959493929190612e98565b6040516020818303038152906040528051906020012090509392505050565b6000807f7fffffffffffffffffffffffffffffff5d576e7357a4501ddfe92f46681b20a08360001c1115611cbc576000600391509150611d85565b601b8560ff1614158015611cd45750601c8560ff1614155b15611ce6576000600491509150611d85565b600060018787878760405160008152602001604052604051611d0b9493929190612f07565b6020604051602081039080840390855afa158015611d2d573d6000803e3d6000fd5b505050602060405103519050600073ffffffffffffffffffffffffffffffffffffffff168173ffffffffffffffffffffffffffffffffffffffff161415611d7c57600060019250925050611d85565b80600092509250505b94509492505050565b6000806000807f7fffffffffffffffffffffffffffffffffffffffffffffffffffffffffffffff85169150601b8560ff1c019050611dce87828885611c81565b935093505050935093915050565b600080fd5b600080fd5b600073ffffffffffffffffffffffffffffffffffffffff82169050919050565b6000611e1182611de6565b9050919050565b611e2181611e06565b8114611e2c57600080fd5b50565b600081359050611e3e81611e18565b92915050565b6000819050919050565b611e5781611e44565b8114611e6257600080fd5b50565b600081359050611e7481611e4e565b92915050565b600080fd5b600080fd5b600080fd5b60008083601f840112611e9f57611e9e611e7a565b5b8235905067ffffffffffffffff811115611ebc57611ebb611e7f565b5b602083019150836001820283011115611ed857611ed7611e84565b5b9250929050565b60008060008060008060008060e0898b031215611eff57611efe611ddc565b5b6000611f0d8b828c01611e2f565b9850506020611f1e8b828c01611e2f565b9750506040611f2f8b828c01611e65565b9650506060611f408b828c01611e65565b9550506080611f518b828c01611e65565b94505060a0611f628b828c01611e65565b93505060c089013567ffffffffffffffff811115611f8357611f82611de1565b5b611f8f8b828c01611e89565b92509250509295985092959890939650565b60008115159050919050565b611fb681611fa1565b8114611fc157600080fd5b50565b600081359050611fd381611fad565b92915050565b600060208284031215611fef57611fee611ddc565b5b6000611ffd84828501611fc4565b91505092915050565b60006020828403121561201c5761201b611ddc565b5b600061202a84828501611e65565b91505092915050565b6000806040838503121561204a57612049611ddc565b5b600061205885828601611e2f565b925050602061206985828601611fc4565b9150509250929050565b61207c81611e06565b82525050565b60006020820190506120976000830184612073565b92915050565b6000602082840312156120b3576120b2611ddc565b5b60006120c184828501611e2f565b91505092915050565b6120d381611fa1565b82525050565b60006020820190506120ee60008301846120ca565b92915050565b6120fd81611e44565b82525050565b600060208201905061211860008301846120f4565b92915050565b6000806040838503121561213557612134611ddc565b5b600061214385828601611e2f565b925050602061215485828601611e65565b9150509250929050565b60008083601f84011261217457612173611e7a565b5b8235905067ffffffffffffffff81111561219157612190611e7f565b5b6020830191508360208202830111156121ad576121ac611e84565b5b9250929050565b60008083601f8401126121ca576121c9611e7a565b5b8235905067ffffffffffffffff8111156121e7576121e6611e7f565b5b60208301915083602082028301111561220357612202611e84565b5b9250929050565b6000806000806040858703121561222457612223611ddc565b5b600085013567ffffffffffffffff81111561224257612241611de1565b5b61224e8782880161215e565b9450945050602085013567ffffffffffffffff81111561227157612270611de1565b5b61227d878288016121b4565b925092505092959194509250565b6000806000606084860312156122a4576122a3611ddc565b5b60006122b286828701611e2f565b93505060206122c386828701611e2f565b92505060406122d486828701611e65565b9150509250925092565b600082825260208201905092915050565b7f5265656e7472616e637947756172643a207265656e7472616e742063616c6c00600082015250565b6000612325601f836122de565b9150612330826122ef565b602082019050919050565b6000602082019050818103600083015261235481612318565b9050919050565b7f4e4654206e6f7420616c6c6f7765640000000000000000000000000000000000600082015250565b6000612391600f836122de565b915061239c8261235b565b602082019050919050565b600060208201905081810360008301526123c081612384565b9050919050565b6000815190506123d681611e18565b92915050565b6000602082840312156123f2576123f1611ddc565b5b6000612400848285016123c7565b91505092915050565b7f4e6f74204e4654206f776e657200000000000000000000000000000000000000600082015250565b600061243f600d836122de565b915061244a82612409565b602082019050919050565b6000602082019050818103600083015261246e81612432565b9050919050565b600060408201905061248a6000830185612073565b6124976020830184612073565b9392505050565b6000815190506124ad81611fad565b92915050565b6000602082840312156124c9576124c8611ddc565b5b60006124d78482850161249e565b91505092915050565b7f4e6f7420617070726f7665640000000000000000000000000000000000000000600082015250565b6000612516600c836122de565b9150612521826124e0565b602082019050919050565b6000602082019050818103600083015261254581612509565b9050919050565b7f4e487b7100000000000000000000000000000000000000000000000000000000600052601160045260246000fd5b600061258682611e44565b915061259183611e44565b9250817fffffffffffffffffffffffffffffffffffffffffffffffffffffffffffffffff04831182151516156125ca576125c961254c565b5b828202905092915050565b7f4e487b7100000000000000000000000000000000000000000000000000000000600052601260045260246000fd5b600061260f82611e44565b915061261a83611e44565b92508261262a576126296125d5565b5b828204905092915050565b600061264082611e44565b915061264b83611e44565b92508282101561265e5761265d61254c565b5b828203905092915050565b600060608201905061267e6000830186612073565b61268b6020830185612073565b61269860408301846120f4565b949350505050565b600060c0820190506126b56000830189612073565b6126c26020830188612073565b6126cf60408301876120f4565b6126dc60608301866120f4565b6126e960808301856120f4565b6126f660a08301846120f4565b979650505050505050565b7f4f776e61626c653a2063616c6c6572206973206e6f7420746865206f776e6572600082015250565b60006127376020836122de565b915061274282612701565b602082019050919050565b600060208201905081810360008301526127668161272a565b9050919050565b7f4665652072617465206d757374206265203c3d20313030250000000000000000600082015250565b60006127a36018836122de565b91506127ae8261276d565b602082019050919050565b600060208201905081810360008301526127d281612796565b9050919050565b7f4172726179206c656e677468206d69736d617463680000000000000000000000600082015250565b600061280f6015836122de565b915061281a826127d9565b602082019050919050565b6000602082019050818103600083015261283e81612802565b9050919050565b7f4e487b7100000000000000000000000000000000000000000000000000000000600052603260045260246000fd5b600061287f82611e44565b91507fffffffffffffffffffffffffffffffffffffffffffffffffffffffffffffffff8214156128b2576128b161254c565b5b600182019050919050565b7f496e76616c69642066656520726563697069656e742061646472657373000000600082015250565b60006128f3601d836122de565b91506128fe826128bd565b602082019050919050565b60006020820190508181036000830152612922816128e6565b9050919050565b7f4f776e61626c653a206e6577206f776e657220697320746865207a65726f206160008201527f6464726573730000000000000000000000000000000000000000000000000000602082015250565b60006129856026836122de565b915061299082612929565b604082019050919050565b600060208201905081810360008301526129b481612978565b9050919050565b7f5369676e61747572652065787069726564000000000000000000000000000000600082015250565b60006129f16011836122de565b91506129fc826129bb565b602082019050919050565b60006020820190508181036000830152612a20816129e4565b9050919050565b7f496e76616c6964206e6f6e636500000000000000000000000000000000000000600082015250565b6000612a5d600d836122de565b9150612a6882612a27565b602082019050919050565b60006020820190508181036000830152612a8c81612a50565b9050919050565b6000819050919050565b612aa681612a93565b82525050565b600060e082019050612ac1600083018a612a9d565b612ace6020830189612073565b612adb6040830188612073565b612ae860608301876120f4565b612af560808301866120f4565b612b0260a08301856120f4565b612b0f60c08301846120f4565b98975050505050505050565b7f496e76616c6964207369676e6174757265000000000000000000000000000000600082015250565b6000612b516011836122de565b9150612b5c82612b1b565b602082019050919050565b60006020820190508181036000830152612b8081612b44565b9050919050565b6000606082019050612b9c6000830186612073565b612ba960208301856120f4565b612bb660408301846120f4565b949350505050565b600081905092915050565b7f1901000000000000000000000000000000000000000000000000000000000000600082015250565b6000612bff600283612bbe565b9150612c0a82612bc9565b600282019050919050565b6000819050919050565b612c30612c2b82612a93565b612c15565b82525050565b6000612c4182612bf2565b9150612c4d8285612c1f565b602082019150612c5d8284612c1f565b6020820191508190509392505050565b7f4e487b7100000000000000000000000000000000000000000000000000000000600052602160045260246000fd5b7f45434453413a20696e76616c6964207369676e61747572650000000000000000600082015250565b6000612cd26018836122de565b9150612cdd82612c9c565b602082019050919050565b60006020820190508181036000830152612d0181612cc5565b9050919050565b7f45434453413a20696e76616c6964207369676e6174757265206c656e67746800600082015250565b6000612d3e601f836122de565b9150612d4982612d08565b602082019050919050565b60006020820190508181036000830152612d6d81612d31565b9050919050565b7f45434453413a20696e76616c6964207369676e6174757265202773272076616c60008201527f7565000000000000000000000000000000000000000000000000000000000000602082015250565b6000612dd06022836122de565b9150612ddb82612d74565b604082019050919050565b60006020820190508181036000830152612dff81612dc3565b9050919050565b7f45434453413a20696e76616c6964207369676e6174757265202776272076616c60008201527f7565000000000000000000000000000000000000000000000000000000000000602082015250565b6000612e626022836122de565b9150612e6d82612e06565b604082019050919050565b60006020820190508181036000830152612e9181612e55565b9050919050565b600060a082019050612ead6000830188612a9d565b612eba6020830187612a9d565b612ec76040830186612a9d565b612ed460608301856120f4565b612ee16080830184612073565b9695505050505050565b600060ff82169050919050565b612f0181612eeb565b82525050565b6000608082019050612f1c6000830187612a9d565b612f296020830186612ef8565b612f366040830185612a9d565b612f436060830184612a9d565b9594505050505056fea2646970667358221220fc3c0b5e2b48ab1d6226494385ffaffed6c17f8de661d660c3172e223e5d5eac64736f6c63430008080033",
  "linkReferences": {},
  "deployedLinkReferences": {}
}